{
    "_format": "hh-sol-artifact-1",
    "contractName": "MyEpicNFT",
    "sourceName": "contracts/MyEpicNFT.sol",
    "abi": [
        {
            "inputs": [],
            "stateMutability": "nonpayable",
            "type": "constructor"
        },
        {
            "anonymous": false,
            "inputs": [
                {
                    "indexed": true,
                    "internalType": "address",
                    "name": "owner",
                    "type": "address"
                },
                {
                    "indexed": true,
                    "internalType": "address",
                    "name": "approved",
                    "type": "address"
                },
                {
                    "indexed": true,
                    "internalType": "uint256",
                    "name": "tokenId",
                    "type": "uint256"
                }
            ],
            "name": "Approval",
            "type": "event"
        },
        {
            "anonymous": false,
            "inputs": [
                {
                    "indexed": true,
                    "internalType": "address",
                    "name": "owner",
                    "type": "address"
                },
                {
                    "indexed": true,
                    "internalType": "address",
                    "name": "operator",
                    "type": "address"
                },
                {
                    "indexed": false,
                    "internalType": "bool",
                    "name": "approved",
                    "type": "bool"
                }
            ],
            "name": "ApprovalForAll",
            "type": "event"
        },
        {
            "anonymous": false,
            "inputs": [
                {
                    "indexed": false,
                    "internalType": "address",
                    "name": "sender",
                    "type": "address"
                },
                {
                    "indexed": false,
                    "internalType": "uint256",
                    "name": "tokenId",
                    "type": "uint256"
                }
            ],
            "name": "NewEpicNFTMinted",
            "type": "event"
        },
        {
            "anonymous": false,
            "inputs": [
                {
                    "indexed": true,
                    "internalType": "address",
                    "name": "from",
                    "type": "address"
                },
                {
                    "indexed": true,
                    "internalType": "address",
                    "name": "to",
                    "type": "address"
                },
                {
                    "indexed": true,
                    "internalType": "uint256",
                    "name": "tokenId",
                    "type": "uint256"
                }
            ],
            "name": "Transfer",
            "type": "event"
        },
        {
            "inputs": [],
            "name": "MAX_SUPPLY",
            "outputs": [
                {
                    "internalType": "uint256",
                    "name": "",
                    "type": "uint256"
                }
            ],
            "stateMutability": "view",
            "type": "function"
        },
        {
            "inputs": [
                {
                    "internalType": "address",
                    "name": "to",
                    "type": "address"
                },
                {
                    "internalType": "uint256",
                    "name": "tokenId",
                    "type": "uint256"
                }
            ],
            "name": "approve",
            "outputs": [],
            "stateMutability": "nonpayable",
            "type": "function"
        },
        {
            "inputs": [
                {
                    "internalType": "address",
                    "name": "owner",
                    "type": "address"
                }
            ],
            "name": "balanceOf",
            "outputs": [
                {
                    "internalType": "uint256",
                    "name": "",
                    "type": "uint256"
                }
            ],
            "stateMutability": "view",
            "type": "function"
        },
        {
            "inputs": [
                {
                    "internalType": "uint256",
                    "name": "tokenId",
                    "type": "uint256"
                }
            ],
            "name": "getApproved",
            "outputs": [
                {
                    "internalType": "address",
                    "name": "",
                    "type": "address"
                }
            ],
            "stateMutability": "view",
            "type": "function"
        },
        {
            "inputs": [
                {
                    "internalType": "address",
                    "name": "owner",
                    "type": "address"
                },
                {
                    "internalType": "address",
                    "name": "operator",
                    "type": "address"
                }
            ],
            "name": "isApprovedForAll",
            "outputs": [
                {
                    "internalType": "bool",
                    "name": "",
                    "type": "bool"
                }
            ],
            "stateMutability": "view",
            "type": "function"
        },
        {
            "inputs": [],
            "name": "makeAnEpicNFT",
            "outputs": [],
            "stateMutability": "nonpayable",
            "type": "function"
        },
        {
            "inputs": [],
            "name": "name",
            "outputs": [
                {
                    "internalType": "string",
                    "name": "",
                    "type": "string"
                }
            ],
            "stateMutability": "view",
            "type": "function"
        },
        {
            "inputs": [
                {
                    "internalType": "uint256",
                    "name": "tokenId",
                    "type": "uint256"
                }
            ],
            "name": "ownerOf",
            "outputs": [
                {
                    "internalType": "address",
                    "name": "",
                    "type": "address"
                }
            ],
            "stateMutability": "view",
            "type": "function"
        },
        {
            "inputs": [
                {
                    "internalType": "uint256",
                    "name": "tokenId",
                    "type": "uint256"
                }
            ],
            "name": "pickRandomFirstWord",
            "outputs": [
                {
                    "internalType": "string",
                    "name": "",
                    "type": "string"
                }
            ],
            "stateMutability": "view",
            "type": "function"
        },
        {
            "inputs": [
                {
                    "internalType": "uint256",
                    "name": "tokenId",
                    "type": "uint256"
                }
            ],
            "name": "pickRandomSecondWord",
            "outputs": [
                {
                    "internalType": "string",
                    "name": "",
                    "type": "string"
                }
            ],
            "stateMutability": "view",
            "type": "function"
        },
        {
            "inputs": [
                {
                    "internalType": "uint256",
                    "name": "tokenId",
                    "type": "uint256"
                }
            ],
            "name": "pickRandomThirdWord",
            "outputs": [
                {
                    "internalType": "string",
                    "name": "",
                    "type": "string"
                }
            ],
            "stateMutability": "view",
            "type": "function"
        },
        {
            "inputs": [
                {
                    "internalType": "address",
                    "name": "from",
                    "type": "address"
                },
                {
                    "internalType": "address",
                    "name": "to",
                    "type": "address"
                },
                {
                    "internalType": "uint256",
                    "name": "tokenId",
                    "type": "uint256"
                }
            ],
            "name": "safeTransferFrom",
            "outputs": [],
            "stateMutability": "nonpayable",
            "type": "function"
        },
        {
            "inputs": [
                {
                    "internalType": "address",
                    "name": "from",
                    "type": "address"
                },
                {
                    "internalType": "address",
                    "name": "to",
                    "type": "address"
                },
                {
                    "internalType": "uint256",
                    "name": "tokenId",
                    "type": "uint256"
                },
                {
                    "internalType": "bytes",
                    "name": "_data",
                    "type": "bytes"
                }
            ],
            "name": "safeTransferFrom",
            "outputs": [],
            "stateMutability": "nonpayable",
            "type": "function"
        },
        {
            "inputs": [
                {
                    "internalType": "address",
                    "name": "operator",
                    "type": "address"
                },
                {
                    "internalType": "bool",
                    "name": "approved",
                    "type": "bool"
                }
            ],
            "name": "setApprovalForAll",
            "outputs": [],
            "stateMutability": "nonpayable",
            "type": "function"
        },
        {
            "inputs": [
                {
                    "internalType": "bytes4",
                    "name": "interfaceId",
                    "type": "bytes4"
                }
            ],
            "name": "supportsInterface",
            "outputs": [
                {
                    "internalType": "bool",
                    "name": "",
                    "type": "bool"
                }
            ],
            "stateMutability": "view",
            "type": "function"
        },
        {
            "inputs": [],
            "name": "symbol",
            "outputs": [
                {
                    "internalType": "string",
                    "name": "",
                    "type": "string"
                }
            ],
            "stateMutability": "view",
            "type": "function"
        },
        {
            "inputs": [
                {
                    "internalType": "uint256",
                    "name": "tokenId",
                    "type": "uint256"
                }
            ],
            "name": "tokenURI",
            "outputs": [
                {
                    "internalType": "string",
                    "name": "",
                    "type": "string"
                }
            ],
            "stateMutability": "view",
            "type": "function"
        },
        {
            "inputs": [],
            "name": "totalSupply",
            "outputs": [
                {
                    "internalType": "uint256",
                    "name": "",
                    "type": "uint256"
                }
            ],
            "stateMutability": "view",
            "type": "function"
        },
        {
            "inputs": [
                {
                    "internalType": "address",
                    "name": "from",
                    "type": "address"
                },
                {
                    "internalType": "address",
                    "name": "to",
                    "type": "address"
                },
                {
                    "internalType": "uint256",
                    "name": "tokenId",
                    "type": "uint256"
                }
            ],
            "name": "transferFrom",
            "outputs": [],
            "stateMutability": "nonpayable",
            "type": "function"
        }
    ],
    "bytecode": "0x608060405260405180610160016040528061012f81526020016200463161012f913960099080519060200190620000389291906200067e565b506040518060c001604052806040518060400160405280600481526020017f457069630000000000000000000000000000000000000000000000000000000081525081526020016040518060400160405280600981526020017f46616e746173746963000000000000000000000000000000000000000000000081525081526020016040518060400160405280600581526020017f437275646500000000000000000000000000000000000000000000000000000081525081526020016040518060400160405280600581526020017f4372617a7900000000000000000000000000000000000000000000000000000081525081526020016040518060400160405280600a81526020017f4879737465726963616c0000000000000000000000000000000000000000000081525081526020016040518060400160405280600581526020017f4772616e64000000000000000000000000000000000000000000000000000000815250815250600a906006620001b69291906200070f565b506040518060c001604052806040518060400160405280600481526020017f4d6574610000000000000000000000000000000000000000000000000000000081525081526020016040518060400160405280600481526020017f4c6976650000000000000000000000000000000000000000000000000000000081525081526020016040518060400160405280600381526020017f506f70000000000000000000000000000000000000000000000000000000000081525081526020016040518060400160405280600481526020017f437574650000000000000000000000000000000000000000000000000000000081525081526020016040518060400160405280600581526020017f537765657400000000000000000000000000000000000000000000000000000081525081526020016040518060400160405280600381526020017f486f740000000000000000000000000000000000000000000000000000000000815250815250600b906006620003349291906200070f565b506040518060c001604052806040518060400160405280600781526020017f646f6c7068696e0000000000000000000000000000000000000000000000000081525081526020016040518060400160405280600681526020017f726162626974000000000000000000000000000000000000000000000000000081525081526020016040518060400160405280600481526020017f6d6172650000000000000000000000000000000000000000000000000000000081525081526020016040518060400160405280600581526020017f6f6b61706900000000000000000000000000000000000000000000000000000081525081526020016040518060400160405280600781526020017f676f72696c6c610000000000000000000000000000000000000000000000000081525081526020016040518060400160405280600681526020017f73657276616c0000000000000000000000000000000000000000000000000000815250815250600c906006620004b29291906200070f565b50348015620004c057600080fd5b506040518060400160405280600981526020017f5371756172654e465400000000000000000000000000000000000000000000008152506040518060400160405280600681526020017f53515541524500000000000000000000000000000000000000000000000000008152508160009080519060200190620005459291906200067e565b5080600190805190602001906200055e9291906200067e565b505050620005ac6040518060400160405280601881526020017f54686973206973206d79204e465420636f6e74726163742e0000000000000000815250620005b260201b620012811760201c565b62000930565b6200065281604051602401620005c9919062000844565b6040516020818303038152906040527f41304fac000000000000000000000000000000000000000000000000000000007bffffffffffffffffffffffffffffffffffffffffffffffffffffffff19166020820180517bffffffffffffffffffffffffffffffffffffffffffffffffffffffff83818316178352505050506200065560201b60201c565b50565b60008151905060006a636f6e736f6c652e6c6f679050602083016000808483855afa5050505050565b8280546200068c90620008ba565b90600052602060002090601f016020900481019282620006b05760008555620006fc565b82601f10620006cb57805160ff1916838001178555620006fc565b82800160010185558215620006fc579182015b82811115620006fb578251825591602001919060010190620006de565b5b5090506200070b919062000776565b5090565b82805482825590600052602060002090810192821562000763579160200282015b8281111562000762578251829080519060200190620007519291906200067e565b509160200191906001019062000730565b5b50905062000772919062000795565b5090565b5b808211156200079157600081600090555060010162000777565b5090565b5b80821115620007b95760008181620007af9190620007bd565b5060010162000796565b5090565b508054620007cb90620008ba565b6000825580601f10620007df575062000800565b601f016020900490600052602060002090810190620007ff919062000776565b5b50565b6000620008108262000868565b6200081c818562000873565b93506200082e81856020860162000884565b62000839816200091f565b840191505092915050565b6000602082019050818103600083015262000860818462000803565b905092915050565b600081519050919050565b600082825260208201905092915050565b60005b83811015620008a457808201518184015260208101905062000887565b83811115620008b4576000848401525b50505050565b60006002820490506001821680620008d357607f821691505b60208210811415620008ea57620008e9620008f0565b5b50919050565b7f4e487b7100000000000000000000000000000000000000000000000000000000600052602260045260246000fd5b6000601f19601f8301169050919050565b613cf180620009406000396000f3fe608060405234801561001057600080fd5b50600436106101215760003560e01c80636352211e116100ad578063b88d4fde11610071578063b88d4fde1461032e578063c575757a1461034a578063c87b56dd1461037a578063de9d132f146103aa578063e985e9c5146103b457610121565b80636352211e1461026457806370a082311461029457806395d89b41146102c4578063a22cb465146102e2578063b187301f146102fe57610121565b806318160ddd116100f457806318160ddd146101c057806323b872dd146101de5780632de38d68146101fa57806332cb6b0c1461022a57806342842e0e1461024857610121565b806301ffc9a71461012657806306fdde0314610156578063081812fc14610174578063095ea7b3146101a4575b600080fd5b610140600480360381019061013b9190612749565b6103e4565b60405161014d9190612e90565b60405180910390f35b61015e6104c6565b60405161016b9190612eab565b60405180910390f35b61018e6004803603810190610189919061279b565b610558565b60405161019b9190612e00565b60405180910390f35b6101be60048036038101906101b9919061270d565b6105dd565b005b6101c86106f5565b6040516101d5919061315b565b60405180910390f35b6101f860048036038101906101f39190612607565b610706565b005b610214600480360381019061020f919061279b565b610766565b6040516102219190612eab565b60405180910390f35b610232610902565b60405161023f919061315b565b60405180910390f35b610262600480360381019061025d9190612607565b610907565b005b61027e6004803603810190610279919061279b565b610927565b60405161028b9190612e00565b60405180910390f35b6102ae60048036038101906102a991906125a2565b6109d9565b6040516102bb919061315b565b60405180910390f35b6102cc610a91565b6040516102d99190612eab565b60405180910390f35b6102fc60048036038101906102f791906126d1565b610b23565b005b6103186004803603810190610313919061279b565b610b39565b6040516103259190612eab565b60405180910390f35b61034860048036038101906103439190612656565b610c57565b005b610364600480360381019061035f919061279b565b610cb9565b6040516103719190612eab565b60405180910390f35b610394600480360381019061038f919061279b565b610dd7565b6040516103a19190612eab565b60405180910390f35b6103b2610f29565b005b6103ce60048036038101906103c991906125cb565b6111ed565b6040516103db9190612e90565b60405180910390f35b60007f80ac58cd000000000000000000000000000000000000000000000000000000007bffffffffffffffffffffffffffffffffffffffffffffffffffffffff1916827bffffffffffffffffffffffffffffffffffffffffffffffffffffffff191614806104af57507f5b5e139f000000000000000000000000000000000000000000000000000000007bffffffffffffffffffffffffffffffffffffffffffffffffffffffff1916827bffffffffffffffffffffffffffffffffffffffffffffffffffffffff1916145b806104bf57506104be8261131a565b5b9050919050565b6060600080546104d5906133ef565b80601f0160208091040260200160405190810160405280929190818152602001828054610501906133ef565b801561054e5780601f106105235761010080835404028352916020019161054e565b820191906000526020600020905b81548152906001019060200180831161053157829003601f168201915b5050505050905090565b600061056382611384565b6105a2576040517f08c379a0000000000000000000000000000000000000000000000000000000008152600401610599906130db565b60405180910390fd5b6004600083815260200190815260200160002060009054906101000a900473ffffffffffffffffffffffffffffffffffffffff169050919050565b60006105e882610927565b90508073ffffffffffffffffffffffffffffffffffffffff168373ffffffffffffffffffffffffffffffffffffffff161415610659576040517f08c379a00000000000000000000000000000000000000000000000000000000081526004016106509061311b565b60405180910390fd5b8073ffffffffffffffffffffffffffffffffffffffff166106786113f0565b73ffffffffffffffffffffffffffffffffffffffff1614806106a757506106a6816106a16113f0565b6111ed565b5b6106e6576040517f08c379a00000000000000000000000000000000000000000000000000000000081526004016106dd90612ffb565b60405180910390fd5b6106f083836113f8565b505050565b600061070160086114b1565b905090565b6107176107116113f0565b826114bf565b610756576040517f08c379a000000000000000000000000000000000000000000000000000000000815260040161074d9061313b565b60405180910390fd5b61076183838361159d565b505050565b6060600061079a61077684611804565b6040516020016107869190612dbc565b6040516020818303038152906040526119b1565b90506107db6040518060400160405280600d81526020017f72616e64202d20736565643a2000000000000000000000000000000000000000815250826119e4565b600a80549050816107ec919061349b565b905061082d6040518060400160405280601381526020017f72616e64202d20666972737420776f72643a2000000000000000000000000000815250826119e4565b600a8181548110610867577f4e487b7100000000000000000000000000000000000000000000000000000000600052603260045260246000fd5b90600052602060002001805461087c906133ef565b80601f01602080910402602001604051908101604052809291908181526020018280546108a8906133ef565b80156108f55780601f106108ca576101008083540402835291602001916108f5565b820191906000526020600020905b8154815290600101906020018083116108d857829003601f168201915b5050505050915050919050565b603281565b61092283838360405180602001604052806000815250610c57565b505050565b6000806002600084815260200190815260200160002060009054906101000a900473ffffffffffffffffffffffffffffffffffffffff169050600073ffffffffffffffffffffffffffffffffffffffff168173ffffffffffffffffffffffffffffffffffffffff1614156109d0576040517f08c379a00000000000000000000000000000000000000000000000000000000081526004016109c79061303b565b60405180910390fd5b80915050919050565b60008073ffffffffffffffffffffffffffffffffffffffff168273ffffffffffffffffffffffffffffffffffffffff161415610a4a576040517f08c379a0000000000000000000000000000000000000000000000000000000008152600401610a419061301b565b60405180910390fd5b600360008373ffffffffffffffffffffffffffffffffffffffff1673ffffffffffffffffffffffffffffffffffffffff168152602001908152602001600020549050919050565b606060018054610aa0906133ef565b80601f0160208091040260200160405190810160405280929190818152602001828054610acc906133ef565b8015610b195780601f10610aee57610100808354040283529160200191610b19565b820191906000526020600020905b815481529060010190602001808311610afc57829003601f168201915b5050505050905090565b610b35610b2e6113f0565b8383611a80565b5050565b60606000610b6d610b4984611804565b604051602001610b599190612d55565b6040516020818303038152906040526119b1565b9050600b8054905081610b80919061349b565b9050600b8181548110610bbc577f4e487b7100000000000000000000000000000000000000000000000000000000600052603260045260246000fd5b906000526020600020018054610bd1906133ef565b80601f0160208091040260200160405190810160405280929190818152602001828054610bfd906133ef565b8015610c4a5780601f10610c1f57610100808354040283529160200191610c4a565b820191906000526020600020905b815481529060010190602001808311610c2d57829003601f168201915b5050505050915050919050565b610c68610c626113f0565b836114bf565b610ca7576040517f08c379a0000000000000000000000000000000000000000000000000000000008152600401610c9e9061313b565b60405180910390fd5b610cb384848484611bed565b50505050565b60606000610ced610cc984611804565b604051602001610cd99190612d33565b6040516020818303038152906040526119b1565b9050600c8054905081610d00919061349b565b9050600c8181548110610d3c577f4e487b7100000000000000000000000000000000000000000000000000000000600052603260045260246000fd5b906000526020600020018054610d51906133ef565b80601f0160208091040260200160405190810160405280929190818152602001828054610d7d906133ef565b8015610dca5780601f10610d9f57610100808354040283529160200191610dca565b820191906000526020600020905b815481529060010190602001808311610dad57829003601f168201915b5050505050915050919050565b6060610de282611384565b610e21576040517f08c379a0000000000000000000000000000000000000000000000000000000008152600401610e18906130bb565b60405180910390fd5b6000600660008481526020019081526020016000208054610e41906133ef565b80601f0160208091040260200160405190810160405280929190818152602001828054610e6d906133ef565b8015610eba5780601f10610e8f57610100808354040283529160200191610eba565b820191906000526020600020905b815481529060010190602001808311610e9d57829003601f168201915b505050505090506000610ecb611c49565b9050600081511415610ee1578192505050610f24565b600082511115610f16578082604051602001610efe929190612c95565b60405160208183030381529060405292505050610f24565b610f1f84611c60565b925050505b919050565b6032610f336106f5565b10610f73576040517f08c379a0000000000000000000000000000000000000000000000000000000008152600401610f6a9061307b565b60405180910390fd5b6000610f7f60076114b1565b90506000610f8c82610766565b90506000610f9983610b39565b90506000610fa684610cb9565b90506000838383604051602001610fbf93929190612cb9565b604051602081830303815290604052905060006009858585604051602001610fea9493929190612cea565b60405160208183030381529060405290506110396040518060400160405280601581526020017f0a2d2d2d2d2d205356472064617461202d2d2d2d2d0000000000000000000000815250611281565b61104281611281565b6110806040518060400160405280601581526020017f2d2d2d2d2d2d2d2d2d2d2d2d2d2d2d2d2d2d2d2d0a0000000000000000000000815250611281565b60006110b48361108f84611d07565b6040516020016110a0929190612d77565b604051602081830303815290604052611d07565b90506000816040516020016110c99190612dde565b60405160208183030381529060405290506111186040518060400160405280601581526020017f0a2d2d2d2d2d20546f6b656e20555249202d2d2d2d0000000000000000000000815250611281565b61112181611281565b61115f6040518060400160405280601581526020017f2d2d2d2d2d2d2d2d2d2d2d2d2d2d2d2d2d2d2d2d0a0000000000000000000000815250611281565b6111693389611ec5565b6111738882611ee3565b611196604051806060016040528060258152602001613c57602591398933611f57565b6111a06007611ff6565b6111aa6008611ff6565b7febb98688741ffa4c7589bf325de30cf7becb63de567842e1ccdb6cb949fdc82c33896040516111db929190612e67565b60405180910390a15050505050505050565b6000600560008473ffffffffffffffffffffffffffffffffffffffff1673ffffffffffffffffffffffffffffffffffffffff16815260200190815260200160002060008373ffffffffffffffffffffffffffffffffffffffff1673ffffffffffffffffffffffffffffffffffffffff16815260200190815260200160002060009054906101000a900460ff16905092915050565b611317816040516024016112959190612eab565b6040516020818303038152906040527f41304fac000000000000000000000000000000000000000000000000000000007bffffffffffffffffffffffffffffffffffffffffffffffffffffffff19166020820180517bffffffffffffffffffffffffffffffffffffffffffffffffffffffff838183161783525050505061200c565b50565b60007f01ffc9a7000000000000000000000000000000000000000000000000000000007bffffffffffffffffffffffffffffffffffffffffffffffffffffffff1916827bffffffffffffffffffffffffffffffffffffffffffffffffffffffff1916149050919050565b60008073ffffffffffffffffffffffffffffffffffffffff166002600084815260200190815260200160002060009054906101000a900473ffffffffffffffffffffffffffffffffffffffff1673ffffffffffffffffffffffffffffffffffffffff1614159050919050565b600033905090565b816004600083815260200190815260200160002060006101000a81548173ffffffffffffffffffffffffffffffffffffffff021916908373ffffffffffffffffffffffffffffffffffffffff160217905550808273ffffffffffffffffffffffffffffffffffffffff1661146b83610927565b73ffffffffffffffffffffffffffffffffffffffff167f8c5be1e5ebec7d5bd14f71427d1e84f3dd0314c0f7b2291e5b200ac8c7c3b92560405160405180910390a45050565b600081600001549050919050565b60006114ca82611384565b611509576040517f08c379a000000000000000000000000000000000000000000000000000000000815260040161150090612fdb565b60405180910390fd5b600061151483610927565b90508073ffffffffffffffffffffffffffffffffffffffff168473ffffffffffffffffffffffffffffffffffffffff161480611556575061155581856111ed565b5b8061159457508373ffffffffffffffffffffffffffffffffffffffff1661157c84610558565b73ffffffffffffffffffffffffffffffffffffffff16145b91505092915050565b8273ffffffffffffffffffffffffffffffffffffffff166115bd82610927565b73ffffffffffffffffffffffffffffffffffffffff1614611613576040517f08c379a000000000000000000000000000000000000000000000000000000000815260040161160a90612f5b565b60405180910390fd5b600073ffffffffffffffffffffffffffffffffffffffff168273ffffffffffffffffffffffffffffffffffffffff161415611683576040517f08c379a000000000000000000000000000000000000000000000000000000000815260040161167a90612f9b565b60405180910390fd5b61168e838383612035565b6116996000826113f8565b6001600360008573ffffffffffffffffffffffffffffffffffffffff1673ffffffffffffffffffffffffffffffffffffffff16815260200190815260200160002060008282546116e99190613305565b925050819055506001600360008473ffffffffffffffffffffffffffffffffffffffff1673ffffffffffffffffffffffffffffffffffffffff16815260200190815260200160002060008282546117409190613224565b92505081905550816002600083815260200190815260200160002060006101000a81548173ffffffffffffffffffffffffffffffffffffffff021916908373ffffffffffffffffffffffffffffffffffffffff160217905550808273ffffffffffffffffffffffffffffffffffffffff168473ffffffffffffffffffffffffffffffffffffffff167fddf252ad1be2c89b69c2b068fc378daa952ba7f163c4a11628f55a4df523b3ef60405160405180910390a46117ff83838361203a565b505050565b6060600082141561184c576040518060400160405280600181526020017f300000000000000000000000000000000000000000000000000000000000000081525090506119ac565b600082905060005b6000821461187e57808061186790613452565b915050600a82611877919061327a565b9150611854565b60008167ffffffffffffffff8111156118c0577f4e487b7100000000000000000000000000000000000000000000000000000000600052604160045260246000fd5b6040519080825280601f01601f1916602001820160405280156118f25781602001600182028036833780820191505090505b5090505b600085146119a55760018261190b9190613305565b9150600a8561191a919061349b565b60306119269190613224565b60f81b818381518110611962577f4e487b7100000000000000000000000000000000000000000000000000000000600052603260045260246000fd5b60200101907effffffffffffffffffffffffffffffffffffffffffffffffffffffffffffff1916908160001a905350600a8561199e919061327a565b94506118f6565b8093505050505b919050565b6000816040516020016119c49190612c7e565b6040516020818303038152906040528051906020012060001c9050919050565b611a7c82826040516024016119fa929190612ecd565b6040516020818303038152906040527f9710a9d0000000000000000000000000000000000000000000000000000000007bffffffffffffffffffffffffffffffffffffffffffffffffffffffff19166020820180517bffffffffffffffffffffffffffffffffffffffffffffffffffffffff838183161783525050505061200c565b5050565b8173ffffffffffffffffffffffffffffffffffffffff168373ffffffffffffffffffffffffffffffffffffffff161415611aef576040517f08c379a0000000000000000000000000000000000000000000000000000000008152600401611ae690612fbb565b60405180910390fd5b80600560008573ffffffffffffffffffffffffffffffffffffffff1673ffffffffffffffffffffffffffffffffffffffff16815260200190815260200160002060008473ffffffffffffffffffffffffffffffffffffffff1673ffffffffffffffffffffffffffffffffffffffff16815260200190815260200160002060006101000a81548160ff0219169083151502179055508173ffffffffffffffffffffffffffffffffffffffff168373ffffffffffffffffffffffffffffffffffffffff167f17307eab39ab6107e8899845ad3d59bd9653f200f220920489ca2b5937696c3183604051611be09190612e90565b60405180910390a3505050565b611bf884848461159d565b611c048484848461203f565b611c43576040517f08c379a0000000000000000000000000000000000000000000000000000000008152600401611c3a90612f3b565b60405180910390fd5b50505050565b606060405180602001604052806000815250905090565b6060611c6b82611384565b611caa576040517f08c379a0000000000000000000000000000000000000000000000000000000008152600401611ca1906130fb565b60405180910390fd5b6000611cb4611c49565b90506000815111611cd45760405180602001604052806000815250611cff565b80611cde84611804565b604051602001611cef929190612c95565b6040516020818303038152906040525b915050919050565b60606000825190506000811415611d305760405180602001604052806000815250915050611ec0565b60006003600283611d419190613224565b611d4b919061327a565b6004611d5791906132ab565b90506000602082611d689190613224565b67ffffffffffffffff811115611da7577f4e487b7100000000000000000000000000000000000000000000000000000000600052604160045260246000fd5b6040519080825280601f01601f191660200182016040528015611dd95781602001600182028036833780820191505090505b5090506000604051806060016040528060408152602001613c7c604091399050600181016020830160005b86811015611e7d5760038101905062ffffff818a015116603f8160121c168401518060081b905060ff603f83600c1c1686015116810190508060081b905060ff603f8360061c1686015116810190508060081b905060ff603f831686015116810190508060e01b90508084526004840193505050611e04565b506003860660018114611e975760028114611ea757611eb2565b613d3d60f01b6002830352611eb2565b603d60f81b60018303525b508484525050819450505050505b919050565b611edf8282604051806020016040528060008152506121d6565b5050565b611eec82611384565b611f2b576040517f08c379a0000000000000000000000000000000000000000000000000000000008152600401611f229061305b565b60405180910390fd5b80600660008481526020019081526020016000209080519060200190611f5292919061242e565b505050565b611ff1838383604051602401611f6f93929190612efd565b6040516020818303038152906040527fe3849f79000000000000000000000000000000000000000000000000000000007bffffffffffffffffffffffffffffffffffffffffffffffffffffffff19166020820180517bffffffffffffffffffffffffffffffffffffffffffffffffffffffff838183161783525050505061200c565b505050565b6001816000016000828254019250508190555050565b60008151905060006a636f6e736f6c652e6c6f679050602083016000808483855afa5050505050565b505050565b505050565b60006120608473ffffffffffffffffffffffffffffffffffffffff16612231565b156121c9578373ffffffffffffffffffffffffffffffffffffffff1663150b7a026120896113f0565b8786866040518563ffffffff1660e01b81526004016120ab9493929190612e1b565b602060405180830381600087803b1580156120c557600080fd5b505af19250505080156120f657506040513d601f19601f820116820180604052508101906120f39190612772565b60015b612179573d8060008114612126576040519150601f19603f3d011682016040523d82523d6000602084013e61212b565b606091505b50600081511415612171576040517f08c379a000000000000000000000000000000000000000000000000000000000815260040161216890612f3b565b60405180910390fd5b805181602001fd5b63150b7a0260e01b7bffffffffffffffffffffffffffffffffffffffffffffffffffffffff1916817bffffffffffffffffffffffffffffffffffffffffffffffffffffffff1916149150506121ce565b600190505b949350505050565b6121e08383612254565b6121ed600084848461203f565b61222c576040517f08c379a000000000000000000000000000000000000000000000000000000000815260040161222390612f3b565b60405180910390fd5b505050565b6000808273ffffffffffffffffffffffffffffffffffffffff163b119050919050565b600073ffffffffffffffffffffffffffffffffffffffff168273ffffffffffffffffffffffffffffffffffffffff1614156122c4576040517f08c379a00000000000000000000000000000000000000000000000000000000081526004016122bb9061309b565b60405180910390fd5b6122cd81611384565b1561230d576040517f08c379a000000000000000000000000000000000000000000000000000000000815260040161230490612f7b565b60405180910390fd5b61231960008383612035565b6001600360008473ffffffffffffffffffffffffffffffffffffffff1673ffffffffffffffffffffffffffffffffffffffff16815260200190815260200160002060008282546123699190613224565b92505081905550816002600083815260200190815260200160002060006101000a81548173ffffffffffffffffffffffffffffffffffffffff021916908373ffffffffffffffffffffffffffffffffffffffff160217905550808273ffffffffffffffffffffffffffffffffffffffff16600073ffffffffffffffffffffffffffffffffffffffff167fddf252ad1be2c89b69c2b068fc378daa952ba7f163c4a11628f55a4df523b3ef60405160405180910390a461242a6000838361203a565b5050565b82805461243a906133ef565b90600052602060002090601f01602090048101928261245c57600085556124a3565b82601f1061247557805160ff19168380011785556124a3565b828001600101855582156124a3579182015b828111156124a2578251825591602001919060010190612487565b5b5090506124b091906124b4565b5090565b5b808211156124cd5760008160009055506001016124b5565b5090565b60006124e46124df8461319b565b613176565b9050828152602081018484840111156124fc57600080fd5b6125078482856133ad565b509392505050565b60008135905061251e81613bfa565b92915050565b60008135905061253381613c11565b92915050565b60008135905061254881613c28565b92915050565b60008151905061255d81613c28565b92915050565b600082601f83011261257457600080fd5b81356125848482602086016124d1565b91505092915050565b60008135905061259c81613c3f565b92915050565b6000602082840312156125b457600080fd5b60006125c28482850161250f565b91505092915050565b600080604083850312156125de57600080fd5b60006125ec8582860161250f565b92505060206125fd8582860161250f565b9150509250929050565b60008060006060848603121561261c57600080fd5b600061262a8682870161250f565b935050602061263b8682870161250f565b925050604061264c8682870161258d565b9150509250925092565b6000806000806080858703121561266c57600080fd5b600061267a8782880161250f565b945050602061268b8782880161250f565b935050604061269c8782880161258d565b925050606085013567ffffffffffffffff8111156126b957600080fd5b6126c587828801612563565b91505092959194509250565b600080604083850312156126e457600080fd5b60006126f28582860161250f565b925050602061270385828601612524565b9150509250929050565b6000806040838503121561272057600080fd5b600061272e8582860161250f565b925050602061273f8582860161258d565b9150509250929050565b60006020828403121561275b57600080fd5b600061276984828501612539565b91505092915050565b60006020828403121561278457600080fd5b60006127928482850161254e565b91505092915050565b6000602082840312156127ad57600080fd5b60006127bb8482850161258d565b91505092915050565b6127cd81613339565b82525050565b6127dc8161334b565b82525050565b60006127ed826131e1565b6127f781856131f7565b93506128078185602086016133bc565b61281081613588565b840191505092915050565b6000612826826131ec565b6128308185613208565b93506128408185602086016133bc565b61284981613588565b840191505092915050565b600061285f826131ec565b6128698185613219565b93506128798185602086016133bc565b80840191505092915050565b60008154612892816133ef565b61289c8186613219565b945060018216600081146128b757600181146128c8576128fb565b60ff198316865281860193506128fb565b6128d1856131cc565b60005b838110156128f3578154818901526001820191506020810190506128d4565b838801955050505b50505092915050565b6000612911603283613208565b915061291c82613599565b604082019050919050565b6000612934602583613208565b915061293f826135e8565b604082019050919050565b6000612957601c83613208565b915061296282613637565b602082019050919050565b600061297a600a83613219565b915061298582613660565b600a82019050919050565b600061299d602483613208565b91506129a882613689565b604082019050919050565b60006129c0601983613208565b91506129cb826136d8565b602082019050919050565b60006129e3606383613219565b91506129ee82613701565b606382019050919050565b6000612a06600b83613219565b9150612a118261379c565b600b82019050919050565b6000612a29602c83613208565b9150612a34826137c5565b604082019050919050565b6000612a4c600d83613219565b9150612a5782613814565b600d82019050919050565b6000612a6f603883613208565b9150612a7a8261383d565b604082019050919050565b6000612a92602a83613208565b9150612a9d8261388c565b604082019050919050565b6000612ab5602983613208565b9150612ac0826138db565b604082019050919050565b6000612ad8602e83613208565b9150612ae38261392a565b604082019050919050565b6000612afb601283613208565b9150612b0682613979565b602082019050919050565b6000612b1e600283613219565b9150612b29826139a2565b600282019050919050565b6000612b41602083613208565b9150612b4c826139cb565b602082019050919050565b6000612b64603183613208565b9150612b6f826139f4565b604082019050919050565b6000612b87602c83613208565b9150612b9282613a43565b604082019050919050565b6000612baa602f83613208565b9150612bb582613a92565b604082019050919050565b6000612bcd600a83613219565b9150612bd882613ae1565b600a82019050919050565b6000612bf0602183613208565b9150612bfb82613b0a565b604082019050919050565b6000612c13600a83613219565b9150612c1e82613b59565b600a82019050919050565b6000612c36601d83613219565b9150612c4182613b82565b601d82019050919050565b6000612c59603183613208565b9150612c6482613bab565b604082019050919050565b612c78816133a3565b82525050565b6000612c8a8284612854565b915081905092915050565b6000612ca18285612854565b9150612cad8284612854565b91508190509392505050565b6000612cc58286612854565b9150612cd18285612854565b9150612cdd8284612854565b9150819050949350505050565b6000612cf68287612885565b9150612d028286612854565b9150612d0e8285612854565b9150612d1a8284612854565b9150612d2582612a3f565b915081905095945050505050565b6000612d3e8261296d565b9150612d4a8284612854565b915081905092915050565b6000612d60826129f9565b9150612d6c8284612854565b915081905092915050565b6000612d8282612bc0565b9150612d8e8285612854565b9150612d99826129d6565b9150612da58284612854565b9150612db082612b11565b91508190509392505050565b6000612dc782612c06565b9150612dd38284612854565b915081905092915050565b6000612de982612c29565b9150612df58284612854565b915081905092915050565b6000602082019050612e1560008301846127c4565b92915050565b6000608082019050612e3060008301876127c4565b612e3d60208301866127c4565b612e4a6040830185612c6f565b8181036060830152612e5c81846127e2565b905095945050505050565b6000604082019050612e7c60008301856127c4565b612e896020830184612c6f565b9392505050565b6000602082019050612ea560008301846127d3565b92915050565b60006020820190508181036000830152612ec5818461281b565b905092915050565b60006040820190508181036000830152612ee7818561281b565b9050612ef66020830184612c6f565b9392505050565b60006060820190508181036000830152612f17818661281b565b9050612f266020830185612c6f565b612f3360408301846127c4565b949350505050565b60006020820190508181036000830152612f5481612904565b9050919050565b60006020820190508181036000830152612f7481612927565b9050919050565b60006020820190508181036000830152612f948161294a565b9050919050565b60006020820190508181036000830152612fb481612990565b9050919050565b60006020820190508181036000830152612fd4816129b3565b9050919050565b60006020820190508181036000830152612ff481612a1c565b9050919050565b6000602082019050818103600083015261301481612a62565b9050919050565b6000602082019050818103600083015261303481612a85565b9050919050565b6000602082019050818103600083015261305481612aa8565b9050919050565b6000602082019050818103600083015261307481612acb565b9050919050565b6000602082019050818103600083015261309481612aee565b9050919050565b600060208201905081810360008301526130b481612b34565b9050919050565b600060208201905081810360008301526130d481612b57565b9050919050565b600060208201905081810360008301526130f481612b7a565b9050919050565b6000602082019050818103600083015261311481612b9d565b9050919050565b6000602082019050818103600083015261313481612be3565b9050919050565b6000602082019050818103600083015261315481612c4c565b9050919050565b60006020820190506131706000830184612c6f565b92915050565b6000613180613191565b905061318c8282613421565b919050565b6000604051905090565b600067ffffffffffffffff8211156131b6576131b5613559565b5b6131bf82613588565b9050602081019050919050565b60008190508160005260206000209050919050565b600081519050919050565b600081519050919050565b600082825260208201905092915050565b600082825260208201905092915050565b600081905092915050565b600061322f826133a3565b915061323a836133a3565b9250827fffffffffffffffffffffffffffffffffffffffffffffffffffffffffffffffff0382111561326f5761326e6134cc565b5b828201905092915050565b6000613285826133a3565b9150613290836133a3565b9250826132a05761329f6134fb565b5b828204905092915050565b60006132b6826133a3565b91506132c1836133a3565b9250817fffffffffffffffffffffffffffffffffffffffffffffffffffffffffffffffff04831182151516156132fa576132f96134cc565b5b828202905092915050565b6000613310826133a3565b915061331b836133a3565b92508282101561332e5761332d6134cc565b5b828203905092915050565b600061334482613383565b9050919050565b60008115159050919050565b60007fffffffff0000000000000000000000000000000000000000000000000000000082169050919050565b600073ffffffffffffffffffffffffffffffffffffffff82169050919050565b6000819050919050565b82818337600083830152505050565b60005b838110156133da5780820151818401526020810190506133bf565b838111156133e9576000848401525b50505050565b6000600282049050600182168061340757607f821691505b6020821081141561341b5761341a61352a565b5b50919050565b61342a82613588565b810181811067ffffffffffffffff8211171561344957613448613559565b5b80604052505050565b600061345d826133a3565b91507fffffffffffffffffffffffffffffffffffffffffffffffffffffffffffffffff8214156134905761348f6134cc565b5b600182019050919050565b60006134a6826133a3565b91506134b1836133a3565b9250826134c1576134c06134fb565b5b828206905092915050565b7f4e487b7100000000000000000000000000000000000000000000000000000000600052601160045260246000fd5b7f4e487b7100000000000000000000000000000000000000000000000000000000600052601260045260246000fd5b7f4e487b7100000000000000000000000000000000000000000000000000000000600052602260045260246000fd5b7f4e487b7100000000000000000000000000000000000000000000000000000000600052604160045260246000fd5b6000601f19601f8301169050919050565b7f4552433732313a207472616e7366657220746f206e6f6e20455243373231526560008201527f63656976657220696d706c656d656e7465720000000000000000000000000000602082015250565b7f4552433732313a207472616e736665722066726f6d20696e636f72726563742060008201527f6f776e6572000000000000000000000000000000000000000000000000000000602082015250565b7f4552433732313a20746f6b656e20616c7265616479206d696e74656400000000600082015250565b7f54484952445f574f524400000000000000000000000000000000000000000000600082015250565b7f4552433732313a207472616e7366657220746f20746865207a65726f2061646460008201527f7265737300000000000000000000000000000000000000000000000000000000602082015250565b7f4552433732313a20617070726f766520746f2063616c6c657200000000000000600082015250565b7f222c20226465736372697074696f6e223a20224120686967686c79206163636c60008201527f61696d656420636f6c6c656374696f6e206f6620737175617265732e222c202260208201527f696d616765223a2022646174613a696d6167652f7376672b786d6c3b6261736560408201527f36342c0000000000000000000000000000000000000000000000000000000000606082015250565b7f5345434f4e445f574f5244000000000000000000000000000000000000000000600082015250565b7f4552433732313a206f70657261746f7220717565727920666f72206e6f6e657860008201527f697374656e7420746f6b656e0000000000000000000000000000000000000000602082015250565b7f3c2f746578743e3c2f7376673e00000000000000000000000000000000000000600082015250565b7f4552433732313a20617070726f76652063616c6c6572206973206e6f74206f7760008201527f6e6572206e6f7220617070726f76656420666f7220616c6c0000000000000000602082015250565b7f4552433732313a2062616c616e636520717565727920666f7220746865207a6560008201527f726f206164647265737300000000000000000000000000000000000000000000602082015250565b7f4552433732313a206f776e657220717565727920666f72206e6f6e657869737460008201527f656e7420746f6b656e0000000000000000000000000000000000000000000000602082015250565b7f45524337323155524953746f726167653a2055524920736574206f66206e6f6e60008201527f6578697374656e7420746f6b656e000000000000000000000000000000000000602082015250565b7f45786365656473206d617820737570706c790000000000000000000000000000600082015250565b7f227d000000000000000000000000000000000000000000000000000000000000600082015250565b7f4552433732313a206d696e7420746f20746865207a65726f2061646472657373600082015250565b7f45524337323155524953746f726167653a2055524920717565727920666f722060008201527f6e6f6e6578697374656e7420746f6b656e000000000000000000000000000000602082015250565b7f4552433732313a20617070726f76656420717565727920666f72206e6f6e657860008201527f697374656e7420746f6b656e0000000000000000000000000000000000000000602082015250565b7f4552433732314d657461646174613a2055524920717565727920666f72206e6f60008201527f6e6578697374656e7420746f6b656e0000000000000000000000000000000000602082015250565b7f7b226e616d65223a202200000000000000000000000000000000000000000000600082015250565b7f4552433732313a20617070726f76616c20746f2063757272656e74206f776e6560008201527f7200000000000000000000000000000000000000000000000000000000000000602082015250565b7f46495253545f574f524400000000000000000000000000000000000000000000600082015250565b7f646174613a6170706c69636174696f6e2f6a736f6e3b6261736536342c000000600082015250565b7f4552433732313a207472616e736665722063616c6c6572206973206e6f74206f60008201527f776e6572206e6f7220617070726f766564000000000000000000000000000000602082015250565b613c0381613339565b8114613c0e57600080fd5b50565b613c1a8161334b565b8114613c2557600080fd5b50565b613c3181613357565b8114613c3c57600080fd5b50565b613c48816133a3565b8114613c5357600080fd5b5056fe416e204e465420772f20494420257320686173206265656e206d696e74656420746f2025734142434445464748494a4b4c4d4e4f505152535455565758595a6162636465666768696a6b6c6d6e6f707172737475767778797a303132333435363738392b2fa26469706673582212200c6626bcee1e3e5101691d8e63857bca6a3e1046c005dda38cf1dc595ef8e01464736f6c634300080400333c73766720786d6c6e733d27687474703a2f2f7777772e77332e6f72672f323030302f73766727207072657365727665417370656374526174696f3d27784d696e594d696e206d656574272076696577426f783d273020302033353020333530273e3c7374796c653e2e62617365207b2066696c6c3a2077686974653b20666f6e742d66616d696c793a2073657269663b20666f6e742d73697a653a20323470783b207d3c2f7374796c653e3c726563742077696474683d273130302527206865696768743d2731303025272066696c6c3d27626c61636b27202f3e3c7465787420783d273530252720793d273530252720636c6173733d27626173652720646f6d696e616e742d626173656c696e653d276d6964646c652720746578742d616e63686f723d276d6964646c65273e",
    "linkReferences": {},
    "deployedLinkReferences": {}
}